{
  "contractName": "TransferTrade",
  "abi": [
    {
      "inputs": [],
      "payable": false,
      "stateMutability": "nonpayable",
      "type": "constructor"
    },
    {
      "anonymous": false,
      "inputs": [
        {
          "indexed": false,
          "internalType": "address",
          "name": "transferee",
          "type": "address"
        }
      ],
      "name": "FinishPay",
      "type": "event"
    },
    {
      "anonymous": false,
      "inputs": [
        {
          "indexed": false,
          "internalType": "string",
          "name": "concertName",
          "type": "string"
        },
        {
          "indexed": false,
          "internalType": "string",
          "name": "day",
          "type": "string"
        },
        {
          "indexed": false,
          "internalType": "string",
          "name": "time",
          "type": "string"
        },
        {
          "indexed": false,
          "internalType": "string",
          "name": "typeOfSeat",
          "type": "string"
        },
        {
          "indexed": false,
          "internalType": "uint32",
          "name": "seatNumber",
          "type": "uint32"
        },
        {
          "indexed": false,
          "internalType": "uint32",
          "name": "ticketPrice",
          "type": "uint32"
        }
      ],
      "name": "GetMyTicket",
      "type": "event"
    },
    {
      "anonymous": false,
      "inputs": [
        {
          "indexed": false,
          "internalType": "string",
          "name": "concertName",
          "type": "string"
        },
        {
          "indexed": false,
          "internalType": "string",
          "name": "day",
          "type": "string"
        },
        {
          "indexed": false,
          "internalType": "string",
          "name": "time",
          "type": "string"
        },
        {
          "indexed": false,
          "internalType": "string",
          "name": "typeOfSeat",
          "type": "string"
        },
        {
          "indexed": false,
          "internalType": "uint32",
          "name": "seatNumber",
          "type": "uint32"
        },
        {
          "indexed": false,
          "internalType": "uint32",
          "name": "ticketPrice",
          "type": "uint32"
        }
      ],
      "name": "GetMyTransferringTicket",
      "type": "event"
    },
    {
      "constant": true,
      "inputs": [],
      "name": "defaultSeat",
      "outputs": [
        {
          "internalType": "string",
          "name": "typeOfSeat",
          "type": "string"
        },
        {
          "internalType": "uint32",
          "name": "seatNumber",
          "type": "uint32"
        }
      ],
      "payable": false,
      "stateMutability": "view",
      "type": "function"
    },
    {
      "constant": true,
      "inputs": [],
      "name": "transferee",
      "outputs": [
        {
          "internalType": "address payable",
          "name": "",
          "type": "address"
        }
      ],
      "payable": false,
      "stateMutability": "view",
      "type": "function"
    },
    {
      "constant": false,
      "inputs": [],
      "name": "transferApplication",
      "outputs": [
        {
          "internalType": "bool",
          "name": "",
          "type": "bool"
        }
      ],
      "payable": false,
      "stateMutability": "nonpayable",
      "type": "function"
    },
    {
      "constant": false,
      "inputs": [],
      "name": "pay",
      "outputs": [
        {
          "internalType": "bool",
          "name": "",
          "type": "bool"
        }
      ],
      "payable": true,
      "stateMutability": "payable",
      "type": "function"
    },
    {
      "constant": false,
      "inputs": [],
      "name": "changeTicketInfo",
      "outputs": [
        {
          "internalType": "address",
          "name": "",
          "type": "address"
        }
      ],
      "payable": false,
      "stateMutability": "nonpayable",
      "type": "function"
    },
    {
      "constant": false,
      "inputs": [],
      "name": "getMyTransferringTicket",
      "outputs": [],
      "payable": false,
      "stateMutability": "nonpayable",
      "type": "function"
    },
    {
      "constant": false,
      "inputs": [],
      "name": "getMyTicket",
      "outputs": [],
      "payable": false,
      "stateMutability": "nonpayable",
      "type": "function"
    }
  ],
  "bytecode": "0x608060405260405180604001604052806040518060400160405280600381526020017f56495000000000000000000000000000000000000000000000000000000000008152508152602001601e63ffffffff16815250600080820151816000019080519060200190610072929190610403565b5060208201518160010160006101000a81548163ffffffff021916908363ffffffff16021790555050506040518060e001604052806040518060400160405280600381526020017f45584f000000000000000000000000000000000000000000000000000000000081525081526020016040518060400160405280600a81526020017f323032312d30362d31380000000000000000000000000000000000000000000081525081526020016040518060400160405280600581526020017f31383a303000000000000000000000000000000000000000000000000000000081525081526020016000604051806040016040529081600082018054600181600116156101000203166002900480601f0160208091040260200160405190810160405280929190818152602001828054600181600116156101000203166002900480156101fe5780601f106101d3576101008083540402835291602001916101fe565b820191906000526020600020905b8154815290600101906020018083116101e157829003601f168201915b505050505081526020016001820160009054906101000a900463ffffffff1663ffffffff1663ffffffff16815250508152602001620186a063ffffffff16815260200160001515815260200173f17f52151ebef6c7334fad080c5704d77216b73273ffffffffffffffffffffffffffffffffffffffff1681525060026000820151816000019080519060200190610296929190610403565b5060208201518160010190805190602001906102b3929190610403565b5060408201518160020190805190602001906102d0929190610403565b5060608201518160030160008201518160000190805190602001906102f6929190610403565b5060208201518160010160006101000a81548163ffffffff021916908363ffffffff160217905550505060808201518160050160006101000a81548163ffffffff021916908363ffffffff16021790555060a08201518160050160046101000a81548160ff02191690831515021790555060c08201518160050160056101000a81548173ffffffffffffffffffffffffffffffffffffffff021916908373ffffffffffffffffffffffffffffffffffffffff16021790555050503480156103bc57600080fd5b5033600860006101000a81548173ffffffffffffffffffffffffffffffffffffffff021916908373ffffffffffffffffffffffffffffffffffffffff1602179055506104a8565b828054600181600116156101000203166002900490600052602060002090601f016020900481019282601f1061044457805160ff1916838001178555610472565b82800160010185558215610472579182015b82811115610471578251825591602001919060010190610456565b5b50905061047f9190610483565b5090565b6104a591905b808211156104a1576000816000905550600101610489565b5090565b90565b610614806104b76000396000f3fe6080604052600436106100705760003560e01c80638cabe7d01161004e5780638cabe7d0146100dd57806391ad15ca14610134578063c03760de146101d7578063ee185f731461022e57610070565b80631b9265b814610075578063330854fc146100975780633f7daf81146100c6575b600080fd5b61007d610245565b604051808215151515815260200191505060405180910390f35b3480156100a357600080fd5b506100ac6103c2565b604051808215151515815260200191505060405180910390f35b3480156100d257600080fd5b506100db610468565b005b3480156100e957600080fd5b506100f261046a565b604051808273ffffffffffffffffffffffffffffffffffffffff1673ffffffffffffffffffffffffffffffffffffffff16815260200191505060405180910390f35b34801561014057600080fd5b50610149610490565b60405180806020018363ffffffff1663ffffffff168152602001828103825284818151815260200191508051906020019080838360005b8381101561019b578082015181840152602081019050610180565b50505050905090810190601f1680156101c85780820380516001836020036101000a031916815260200191505b50935050505060405180910390f35b3480156101e357600080fd5b506101ec61054a565b604051808273ffffffffffffffffffffffffffffffffffffffff1673ffffffffffffffffffffffffffffffffffffffff16815260200191505060405180910390f35b34801561023a57600080fd5b506102436105dd565b005b60006611c37937e0800034146102c3576040517f08c379a000000000000000000000000000000000000000000000000000000000815260040180806020018281038252600e8152602001807f4e6f7420656e6f7567682045544800000000000000000000000000000000000081525060200191505060405180910390fd5b600260050160059054906101000a900473ffffffffffffffffffffffffffffffffffffffff1673ffffffffffffffffffffffffffffffffffffffff166108fc6611c37937e080009081150290604051600060405180830381858888f19350505050158015610335573d6000803e3d6000fd5b507fc73eab56fc02d3deb722a9bbd4fa9070921489e2fd83cb0ec4180d516da6cee5600860009054906101000a900473ffffffffffffffffffffffffffffffffffffffff16604051808273ffffffffffffffffffffffffffffffffffffffff1673ffffffffffffffffffffffffffffffffffffffff16815260200191505060405180910390a16001905090565b6000801515600260050160049054906101000a900460ff1615151461044f576040517f08c379a000000000000000000000000000000000000000000000000000000000815260040180806020018281038252601d8152602001807f416c7265616479207469636b6574206973207472616e7366657272656400000081525060200191505060405180910390fd5b610457610245565b5061046061054a565b506001905090565b565b600860009054906101000a900473ffffffffffffffffffffffffffffffffffffffff1681565b6000806000018054600181600116156101000203166002900480601f01602080910402602001604051908101604052809291908181526020018280546001816001161561010002031660029004801561052a5780601f106104ff5761010080835404028352916020019161052a565b820191906000526020600020905b81548152906001019060200180831161050d57829003601f168201915b5050505050908060010160009054906101000a900463ffffffff16905082565b6000600860009054906101000a900473ffffffffffffffffffffffffffffffffffffffff16600260050160056101000a81548173ffffffffffffffffffffffffffffffffffffffff021916908373ffffffffffffffffffffffffffffffffffffffff160217905550600260050160059054906101000a900473ffffffffffffffffffffffffffffffffffffffff16905090565b56fea265627a7a72315820e38191faab910d0c4aa36eb767784b5c5ac4cc30b56f922406fb04c9deb8fcc564736f6c63430005100032",
  "source": "pragma solidity 0.5.16;\r\n\r\ncontract TransferTrade {\r\n\r\n    struct TicketInfo {\r\n        string concertName;\r\n        string day;   // 나중에 타입 다시 생각하기\r\n        string time;  // 나중에 타입 다시 생각하기\r\n        Seat seat;\r\n        uint32 ticketPrice;\r\n        bool isTransferred;\r\n        address payable owner;\r\n    }\r\n\r\n    struct Seat {\r\n        string typeOfSeat;\r\n        uint32 seatNumber;\r\n    }\r\n\r\n    // 디폴트 티켓 생성\r\n    Seat public defaultSeat = Seat(\"VIP\", 30);\r\n    TicketInfo defaultTicket = TicketInfo(\"EXO\", \"2021-06-18\", \"18:00\", defaultSeat, 100000, false, 0xf17f52151EbEF6C7334FAD080c5704D77216b732);\r\n\r\n    // 상수\r\n    uint256 constant internal TICKET_PRICE = 5 * 10 ** 15;\r\n\r\n    // 변수\r\n    address payable public transferee;\r\n\r\n    // 이벤트\r\n    event GetMyTransferringTicket(string concertName, string day, string time, string typeOfSeat, uint32 seatNumber, uint32 ticketPrice);\r\n    event GetMyTicket(string concertName, string day, string time, string typeOfSeat, uint32 seatNumber, uint32 ticketPrice);\r\n    event FinishPay(address transferee);\r\n\r\n    // 생성자\r\n    constructor() public {\r\n        transferee = msg.sender;\r\n    }\r\n\r\n    /**\r\n    * @dev 양도 신청 처리 함수\r\n    */\r\n    function transferApplication() public returns (bool){\r\n        // alreadyTransferringTicket을 확인, 임시로 데모를 위해 require만을 사용하여 거래가 진행중인지 확인한다.\r\n        require(defaultTicket.isTransferred == false, \"Already ticket is transferred\");\r\n\r\n        // pay\r\n        pay();\r\n\r\n        // changeTicketInfo\r\n        changeTicketInfo();\r\n\r\n        return true;\r\n    }\r\n\r\n    /**\r\n    * @dev 이미 거래중인 티켓인 경우\r\n    */\r\n    function alreadyTransferringTicket() internal returns (bool result){\r\n        return false;\r\n    }\r\n\r\n    /**\r\n    * @dev 양수인의 계좌에서 티켓 가격을 받아 양도인에게 송금한다.\r\n    */\r\n    function pay() public payable returns (bool) {\r\n        // 현재 가나슈를 실행중이 아니라서 ticket info의 owner 정보가 없어서 주석처리함\r\n        require(msg.value == TICKET_PRICE, \"Not enough ETH\");\r\n\r\n        defaultTicket.owner.transfer(TICKET_PRICE);\r\n        emit FinishPay(transferee);\r\n\r\n        return true;\r\n    }\r\n\r\n    /**\r\n    * @dev 양도거래가 끝난 티켓의 정보를 수정한다.\r\n    */\r\n    function changeTicketInfo() public returns (address) {\r\n        // owner change\r\n        // 현재 가나슈를 실행중이 아니라서 ticket info의 owner 정보가 없어서 주석처리함\r\n        defaultTicket.owner = transferee;\r\n        return defaultTicket.owner;\r\n    }\r\n\r\n    /**\r\n    * @dev 마이페이지에서 진행중인 양도거래 티켓을 보여준다.\r\n    */\r\n    function getMyTransferringTicket() public {\r\n\r\n    }\r\n\r\n    /**\r\n    * @dev 마이페이지에서 소유하고 있는 티켓을 보여준다.\r\n    */\r\n    function getMyTicket() public {\r\n\r\n    }\r\n}",
  "sourcePath": "C:/Users/seung/Desktop/학교생활/2021_1/종합설계1/myproject/K-ticket/contracts/TransferTrade.sol",
  "compiler": {
    "name": "solc",
    "version": "0.5.16+commit.9c3226ce.Emscripten.clang"
  },
  "schemaVersion": "3.3.3",
  "updatedAt": "2021-06-07T10:31:37.817Z",
  "networkType": "ethereum",
  "devdoc": {
    "methods": {
      "changeTicketInfo()": {
        "details": "양도거래가 끝난 티켓의 정보를 수정한다."
      },
      "getMyTicket()": {
        "details": "마이페이지에서 소유하고 있는 티켓을 보여준다."
      },
      "getMyTransferringTicket()": {
        "details": "마이페이지에서 진행중인 양도거래 티켓을 보여준다."
      },
      "pay()": {
        "details": "양수인의 계좌에서 티켓 가격을 받아 양도인에게 송금한다."
      },
      "transferApplication()": {
        "details": "양도 신청 처리 함수"
      }
    }
  },
  "userdoc": {
    "methods": {}
  }
}