{
  "contractName": "TransferTrade",
  "abi": [
    {
      "constant": true,
      "inputs": [],
      "name": "defaultSeat",
      "outputs": [
        {
          "internalType": "string",
          "name": "typeOfSeat",
          "type": "string"
        },
        {
          "internalType": "uint32",
          "name": "seatNumber",
          "type": "uint32"
        }
      ],
      "payable": false,
      "stateMutability": "view",
      "type": "function"
    },
    {
      "constant": false,
      "inputs": [],
      "name": "transferApplication",
      "outputs": [],
      "payable": false,
      "stateMutability": "nonpayable",
      "type": "function"
    },
    {
      "constant": false,
      "inputs": [],
      "name": "getMyTransferringTicket",
      "outputs": [],
      "payable": false,
      "stateMutability": "nonpayable",
      "type": "function"
    },
    {
      "constant": false,
      "inputs": [],
      "name": "getMyTicket",
      "outputs": [],
      "payable": false,
      "stateMutability": "nonpayable",
      "type": "function"
    }
  ],
  "bytecode": "0x608060405260405180604001604052806040518060400160405280600381526020017f56495000000000000000000000000000000000000000000000000000000000008152508152602001601e63ffffffff16815250600080820151816000019080519060200190610072929190610322565b5060208201518160010160006101000a81548163ffffffff021916908363ffffffff16021790555050506040518060a001604052806040518060400160405280600381526020017f45584f000000000000000000000000000000000000000000000000000000000081525081526020016040518060400160405280600a81526020017f323032312d30362d31380000000000000000000000000000000000000000000081525081526020016040518060400160405280600581526020017f31383a303000000000000000000000000000000000000000000000000000000081525081526020016000604051806040016040529081600082018054600181600116156101000203166002900480601f0160208091040260200160405190810160405280929190818152602001828054600181600116156101000203166002900480156101fe5780601f106101d3576101008083540402835291602001916101fe565b820191906000526020600020905b8154815290600101906020018083116101e157829003601f168201915b505050505081526020016001820160009054906101000a900463ffffffff1663ffffffff1663ffffffff16815250508152602001620186a063ffffffff168152506002600082015181600001908051906020019061025d929190610322565b50602082015181600101908051906020019061027a929190610322565b506040820151816002019080519060200190610297929190610322565b5060608201518160030160008201518160000190805190602001906102bd929190610322565b5060208201518160010160006101000a81548163ffffffff021916908363ffffffff160217905550505060808201518160050160006101000a81548163ffffffff021916908363ffffffff160217905550505034801561031c57600080fd5b506103c7565b828054600181600116156101000203166002900490600052602060002090601f016020900481019282601f1061036357805160ff1916838001178555610391565b82800160010185558215610391579182015b82811115610390578251825591602001919060010190610375565b5b50905061039e91906103a2565b5090565b6103c491905b808211156103c05760008160009055506001016103a8565b5090565b90565b6101fa806103d66000396000f3fe608060405234801561001057600080fd5b506004361061004c5760003560e01c8063330854fc146100515780633f7daf811461005b57806391ad15ca14610065578063ee185f73146100fb575b600080fd5b610059610105565b005b610063610107565b005b61006d610109565b60405180806020018363ffffffff1663ffffffff168152602001828103825284818151815260200191508051906020019080838360005b838110156100bf5780820151818401526020810190506100a4565b50505050905090810190601f1680156100ec5780820380516001836020036101000a031916815260200191505b50935050505060405180910390f35b6101036101c3565b005b565b565b6000806000018054600181600116156101000203166002900480601f0160208091040260200160405190810160405280929190818152602001828054600181600116156101000203166002900480156101a35780601f10610178576101008083540402835291602001916101a3565b820191906000526020600020905b81548152906001019060200180831161018657829003601f168201915b5050505050908060010160009054906101000a900463ffffffff16905082565b56fea265627a7a723158205d76db87d1c27647fd1ae7cefe04c21245ac63bf3985ed70a0941b19c22711ab64736f6c63430005100032",
  "source": "pragma solidity >=0.4.21 <0.7.0;\r\n\r\ncontract TransferTrade {\r\n\r\n    struct TicketInfo {\r\n        string concertName;\r\n        string day;   // 나중에 타입 다시 생각하기\r\n        string time;  // 나중에 타입 다시 생각하기\r\n        Seat seat;\r\n        uint32 ticketPrice;\r\n    }\r\n\r\n    struct Seat {\r\n        string typeOfSeat;\r\n        uint32 seatNumber;\r\n    }\r\n\r\n    Seat public defaultSeat = Seat(\"VIP\", 30);\r\n    // 디폴트 티켓 생성\r\n\r\n    TicketInfo defaultTicket = TicketInfo(\"EXO\", \"2021-06-18\", \"18:00\", defaultSeat, 100000);\r\n\r\n\r\n    // 변수\r\n\r\n    /**\r\n    * @dev 양도 신청 처리 함수\r\n    */\r\n    function transferApplication() public {\r\n        // alreadyTransferringTicket을 확인\r\n        // pay\r\n        // changeTicketInfo\r\n\r\n    }\r\n\r\n    /**\r\n    * @dev 이미 거래중인 티켓인 경우\r\n    */\r\n    function alreadyTransferringTicket() internal {\r\n\r\n    }\r\n\r\n    /**\r\n    * @dev 양수인의 계좌에서 티켓 가격을 받아 양도인에게 송금한다.\r\n    */\r\n    function  pay() internal {\r\n\r\n    }\r\n\r\n    /**\r\n    * @dev 양도거래가 끝난 티켓의 정보를 수정한다.\r\n    */\r\n    function changeTicketInfo() internal {\r\n\r\n    }\r\n\r\n    /**\r\n    * @dev 마이페이지에서 진행중인 양도거래 티켓을 보여준다.\r\n    */\r\n    function getMyTransferringTicket() public {\r\n\r\n    }\r\n\r\n    /**\r\n    * @dev 마이페이지에서 소유하고 있는 티켓을 보여준다.\r\n    */\r\n    function getMyTicket() public {\r\n\r\n    }\r\n}",
  "sourcePath": "C:/Users/seung/Desktop/학교생활/2021_1/종합설계1/myproject/K-ticket/contracts/TransferTrade.sol",
  "compiler": {
    "name": "solc",
    "version": "0.5.16+commit.9c3226ce.Emscripten.clang"
  },
  "schemaVersion": "3.3.3",
  "updatedAt": "2021-05-24T11:00:58.121Z",
  "devdoc": {
    "methods": {
      "getMyTicket()": {
        "details": "마이페이지에서 소유하고 있는 티켓을 보여준다."
      },
      "getMyTransferringTicket()": {
        "details": "마이페이지에서 진행중인 양도거래 티켓을 보여준다."
      },
      "transferApplication()": {
        "details": "양도 신청 처리 함수"
      }
    }
  },
  "userdoc": {
    "methods": {}
  }
}