{
  "contractName": "TransferTrade",
  "abi": [
    {
      "inputs": [],
      "payable": true,
      "stateMutability": "payable",
      "type": "constructor"
    },
    {
      "anonymous": false,
      "inputs": [
        {
          "indexed": false,
          "internalType": "address",
          "name": "transferee",
          "type": "address"
        }
      ],
      "name": "FinishPay",
      "type": "event"
    },
    {
      "anonymous": false,
      "inputs": [
        {
          "indexed": false,
          "internalType": "string",
          "name": "concertName",
          "type": "string"
        },
        {
          "indexed": false,
          "internalType": "string",
          "name": "day",
          "type": "string"
        },
        {
          "indexed": false,
          "internalType": "string",
          "name": "time",
          "type": "string"
        },
        {
          "components": [
            {
              "internalType": "string",
              "name": "typeOfSeat",
              "type": "string"
            },
            {
              "internalType": "uint32",
              "name": "seatNumber",
              "type": "uint32"
            }
          ],
          "indexed": false,
          "internalType": "struct TransferTrade.Seat",
          "name": "defaultSeat",
          "type": "tuple"
        },
        {
          "indexed": false,
          "internalType": "uint32",
          "name": "ticketPrice",
          "type": "uint32"
        },
        {
          "indexed": false,
          "internalType": "address",
          "name": "owner",
          "type": "address"
        }
      ],
      "name": "GetDefaultTicket",
      "type": "event"
    },
    {
      "anonymous": false,
      "inputs": [
        {
          "indexed": false,
          "internalType": "string",
          "name": "concertName",
          "type": "string"
        },
        {
          "indexed": false,
          "internalType": "string",
          "name": "day",
          "type": "string"
        },
        {
          "indexed": false,
          "internalType": "string",
          "name": "time",
          "type": "string"
        },
        {
          "indexed": false,
          "internalType": "string",
          "name": "typeOfSeat",
          "type": "string"
        },
        {
          "indexed": false,
          "internalType": "uint32",
          "name": "seatNumber",
          "type": "uint32"
        },
        {
          "indexed": false,
          "internalType": "uint32",
          "name": "ticketPrice",
          "type": "uint32"
        }
      ],
      "name": "GetMyTicket",
      "type": "event"
    },
    {
      "anonymous": false,
      "inputs": [
        {
          "indexed": false,
          "internalType": "string",
          "name": "concertName",
          "type": "string"
        },
        {
          "indexed": false,
          "internalType": "string",
          "name": "day",
          "type": "string"
        },
        {
          "indexed": false,
          "internalType": "string",
          "name": "time",
          "type": "string"
        },
        {
          "indexed": false,
          "internalType": "string",
          "name": "typeOfSeat",
          "type": "string"
        },
        {
          "indexed": false,
          "internalType": "uint32",
          "name": "seatNumber",
          "type": "uint32"
        },
        {
          "indexed": false,
          "internalType": "uint32",
          "name": "ticketPrice",
          "type": "uint32"
        }
      ],
      "name": "GetMyTransferringTicket",
      "type": "event"
    },
    {
      "constant": true,
      "inputs": [],
      "name": "defaultSeat",
      "outputs": [
        {
          "internalType": "string",
          "name": "typeOfSeat",
          "type": "string"
        },
        {
          "internalType": "uint32",
          "name": "seatNumber",
          "type": "uint32"
        }
      ],
      "payable": false,
      "stateMutability": "view",
      "type": "function"
    },
    {
      "constant": true,
      "inputs": [],
      "name": "transferee",
      "outputs": [
        {
          "internalType": "address payable",
          "name": "",
          "type": "address"
        }
      ],
      "payable": false,
      "stateMutability": "view",
      "type": "function"
    },
    {
      "constant": false,
      "inputs": [],
      "name": "getDefaultTicket",
      "outputs": [],
      "payable": false,
      "stateMutability": "nonpayable",
      "type": "function"
    },
    {
      "constant": false,
      "inputs": [],
      "name": "transferApplication",
      "outputs": [
        {
          "internalType": "bool",
          "name": "",
          "type": "bool"
        }
      ],
      "payable": true,
      "stateMutability": "payable",
      "type": "function"
    },
    {
      "constant": false,
      "inputs": [],
      "name": "pay",
      "outputs": [],
      "payable": true,
      "stateMutability": "payable",
      "type": "function"
    },
    {
      "constant": false,
      "inputs": [],
      "name": "changeTicketInfo",
      "outputs": [
        {
          "internalType": "address",
          "name": "",
          "type": "address"
        }
      ],
      "payable": false,
      "stateMutability": "nonpayable",
      "type": "function"
    },
    {
      "constant": false,
      "inputs": [],
      "name": "getMyTransferringTicket",
      "outputs": [
        {
          "internalType": "string",
          "name": "",
          "type": "string"
        }
      ],
      "payable": false,
      "stateMutability": "nonpayable",
      "type": "function"
    },
    {
      "constant": false,
      "inputs": [],
      "name": "getMyTicket",
      "outputs": [
        {
          "internalType": "string",
          "name": "",
          "type": "string"
        },
        {
          "internalType": "address",
          "name": "",
          "type": "address"
        }
      ],
      "payable": false,
      "stateMutability": "nonpayable",
      "type": "function"
    }
  ],
  "bytecode": "0x608060405260405180604001604052806040518060400160405280600381526020017f56495000000000000000000000000000000000000000000000000000000000008152508152602001601e63ffffffff168152506000808201518160000190805190602001906200007492919062000405565b5060208201518160010160006101000a81548163ffffffff021916908363ffffffff16021790555050506040518060e001604052806040518060400160405280600c81526020017fec98a4eba788ec9db4eab1b8000000000000000000000000000000000000000081525081526020016040518060400160405280600a81526020017f323032312d30362d31380000000000000000000000000000000000000000000081525081526020016040518060400160405280600581526020017f31383a303000000000000000000000000000000000000000000000000000000081525081526020016000604051806040016040529081600082018054600181600116156101000203166002900480601f016020809104026020016040519081016040528092919081815260200182805460018160011615610100020316600290048015620002045780601f10620001d85761010080835404028352916020019162000204565b820191906000526020600020905b815481529060010190602001808311620001e657829003601f168201915b505050505081526020016001820160009054906101000a900463ffffffff1663ffffffff1663ffffffff16815250508152602001620186a063ffffffff168152602001600015158152602001731c049ac608cb6b8b748ed0449b9d592b9cde231473ffffffffffffffffffffffffffffffffffffffff16815250600260008201518160000190805190602001906200029e92919062000405565b506020820151816001019080519060200190620002bd92919062000405565b506040820151816002019080519060200190620002dc92919062000405565b5060608201518160030160008201518160000190805190602001906200030492919062000405565b5060208201518160010160006101000a81548163ffffffff021916908363ffffffff160217905550505060808201518160050160006101000a81548163ffffffff021916908363ffffffff16021790555060a08201518160050160046101000a81548160ff02191690831515021790555060c08201518160050160056101000a81548173ffffffffffffffffffffffffffffffffffffffff021916908373ffffffffffffffffffffffffffffffffffffffff160217905550505033600860006101000a81548173ffffffffffffffffffffffffffffffffffffffff021916908373ffffffffffffffffffffffffffffffffffffffff160217905550620004b4565b828054600181600116156101000203166002900490600052602060002090601f016020900481019282601f106200044857805160ff191683800117855562000479565b8280016001018555821562000479579182015b82811115620004785782518255916020019190600101906200045b565b5b5090506200048891906200048c565b5090565b620004b191905b80821115620004ad57600081600090555060010162000493565b5090565b90565b61101380620004c46000396000f3fe60806040526004361061007b5760003560e01c806391ad15ca1161004e57806391ad15ca146100ff578063af9d367f1461012b578063c03760de14610142578063ee185f731461016d5761007b565b80631b9265b814610080578063330854fc1461008a5780633f7daf81146100a85780638cabe7d0146100d4575b600080fd5b610088610198565b005b6100926102cd565b60405161009f9190610c5b565b60405180910390f35b3480156100b457600080fd5b506100bd61033f565b6040516100cb929190610c98565b60405180910390f35b3480156100e057600080fd5b506100e961052e565b6040516100f69190610c40565b60405180910390f35b34801561010b57600080fd5b50610114610554565b604051610122929190610cc8565b60405180910390f35b34801561013757600080fd5b5061014061060e565b005b34801561014e57600080fd5b5061015761069a565b6040516101649190610c0a565b60405180910390f35b34801561017957600080fd5b5061018261072d565b60405161018f9190610c76565b60405180910390f35b6611c37937e0800034146101e1576040517f08c379a00000000000000000000000000000000000000000000000000000000081526004016101d890610e32565b60405180910390fd5b6001600260050160046101000a81548160ff021916908315150217905550600260050160059054906101000a900473ffffffffffffffffffffffffffffffffffffffff1673ffffffffffffffffffffffffffffffffffffffff166108fc6611c37937e080009081150290604051600060405180830381858888f19350505050158015610271573d6000803e3d6000fd5b507fc73eab56fc02d3deb722a9bbd4fa9070921489e2fd83cb0ec4180d516da6cee5600860009054906101000a900473ffffffffffffffffffffffffffffffffffffffff166040516102c39190610c25565b60405180910390a1565b6000801515600260050160049054906101000a900460ff16151514610327576040517f08c379a000000000000000000000000000000000000000000000000000000000815260040161031e90610e52565b60405180910390fd5b61032f610198565b61033761069a565b506001905090565b60606000600260050160059054906101000a900473ffffffffffffffffffffffffffffffffffffffff1673ffffffffffffffffffffffffffffffffffffffff163373ffffffffffffffffffffffffffffffffffffffff16146103d6576040517f08c379a00000000000000000000000000000000000000000000000000000000081526004016103cd90610e12565b60405180910390fd5b7f1ccd2708511276a00ae915f8091971fbd4de79547357a0299612d89f6e26412360026000016002600101600280016002600301600001600260030160010160009054906101000a900463ffffffff16600260050160009054906101000a900463ffffffff1660405161044e96959493929190610cf8565b60405180910390a1606060026000018054600181600116156101000203166002900480601f0160208091040260200160405190810160405280929190818152602001828054600181600116156101000203166002900480156104f15780601f106104c6576101008083540402835291602001916104f1565b820191906000526020600020905b8154815290600101906020018083116104d457829003601f168201915b505050505090506000600260050160059054906101000a900473ffffffffffffffffffffffffffffffffffffffff16905081819350935050509091565b600860009054906101000a900473ffffffffffffffffffffffffffffffffffffffff1681565b6000806000018054600181600116156101000203166002900480601f0160208091040260200160405190810160405280929190818152602001828054600181600116156101000203166002900480156105ee5780601f106105c3576101008083540402835291602001916105ee565b820191906000526020600020905b8154815290600101906020018083116105d157829003601f168201915b5050505050908060010160009054906101000a900463ffffffff16905082565b7ff12c8fb1bcf59946bf10e7f3c0e7b2d6dcd0996f14583d3df54c9b50135e7b8260026000016002600101600280016002600301600260050160009054906101000a900463ffffffff16600260050160059054906101000a900473ffffffffffffffffffffffffffffffffffffffff1660405161069096959493929190610d75565b60405180910390a1565b6000600860009054906101000a900473ffffffffffffffffffffffffffffffffffffffff16600260050160056101000a81548173ffffffffffffffffffffffffffffffffffffffff021916908373ffffffffffffffffffffffffffffffffffffffff160217905550600260050160059054906101000a900473ffffffffffffffffffffffffffffffffffffffff16905090565b606060001515600260050160049054906101000a900460ff16151514610788576040517f08c379a000000000000000000000000000000000000000000000000000000000815260040161077f90610df2565b60405180910390fd5b7f5e203cf89aef82f23926ff5a561b5c66aadeefcb1b8c83ddfd16dc7abf7b0c5160026000016002600101600280016002600301600001600260030160010160009054906101000a900463ffffffff16600260050160009054906101000a900463ffffffff1660405161080096959493929190610cf8565b60405180910390a1606060026000018054600181600116156101000203166002900480601f0160208091040260200160405190810160405280929190818152602001828054600181600116156101000203166002900480156108a35780601f10610878576101008083540402835291602001916108a3565b820191906000526020600020905b81548152906001019060200180831161088657829003601f168201915b505050505090508091505090565b6108ba81610f2f565b82525050565b6108c981610ee1565b82525050565b6108d881610ecf565b82525050565b6108e781610ef3565b82525050565b60006108f882610e92565b6109028185610eae565b9350610912818560208601610f65565b61091b81610fb2565b840191505092915050565b600061093182610e87565b61093b8185610eae565b935061094b818560208601610f65565b61095481610fb2565b840191505092915050565b60008154600181166000811461097c57600181146109a2576109e6565b607f600283041661098d8187610e9d565b955060ff1983168652602086019350506109e6565b600282046109b08187610e9d565b95506109bb85610e72565b60005b828110156109dd578154818901526001820191506020810190506109be565b80880195505050505b505092915050565b600081546001811660008114610a0b5760018114610a3157610a75565b607f6002830416610a1c8187610eae565b955060ff198316865260208601935050610a75565b60028204610a3f8187610eae565b9550610a4a85610e72565b60005b82811015610a6c57815481890152600182019150602081019050610a4d565b80880195505050505b505092915050565b6000610a8a601a83610eae565b91507f5469636b657420747261646520697320636f6d706c657465642e0000000000006000830152602082019050919050565b6000610aca602e83610eae565b91507f596f75206172656e2774206f776e65722e2e20536f206974277320696d706f7360008301527f7369626c6520636f6e6669726d2e0000000000000000000000000000000000006020830152604082019050919050565b6000610b30600e83610eae565b91507f4e6f7420656e6f756768204554480000000000000000000000000000000000006000830152602082019050919050565b6000610b70601d83610eae565b91507f416c7265616479207469636b6574206973207472616e736665727265640000006000830152602082019050919050565b60006040830160008084018583036000870152610bc0838261095f565b92505060018401549050610bd381610f98565b610be06020870182610bec565b50819250505092915050565b610bf581610f1f565b82525050565b610c0481610f1f565b82525050565b6000602082019050610c1f60008301846108cf565b92915050565b6000602082019050610c3a60008301846108b1565b92915050565b6000602082019050610c5560008301846108c0565b92915050565b6000602082019050610c7060008301846108de565b92915050565b60006020820190508181036000830152610c9081846108ed565b905092915050565b60006040820190508181036000830152610cb281856108ed565b9050610cc160208301846108cf565b9392505050565b60006040820190508181036000830152610ce28185610926565b9050610cf16020830184610bfb565b9392505050565b600060c0820190508181036000830152610d1281896109ee565b90508181036020830152610d2681886109ee565b90508181036040830152610d3a81876109ee565b90508181036060830152610d4e81866109ee565b9050610d5d6080830185610bfb565b610d6a60a0830184610bfb565b979650505050505050565b600060c0820190508181036000830152610d8f81896109ee565b90508181036020830152610da381886109ee565b90508181036040830152610db781876109ee565b90508181036060830152610dcb8186610ba3565b9050610dda6080830185610bfb565b610de760a08301846108b1565b979650505050505050565b60006020820190508181036000830152610e0b81610a7d565b9050919050565b60006020820190508181036000830152610e2b81610abd565b9050919050565b60006020820190508181036000830152610e4b81610b23565b9050919050565b60006020820190508181036000830152610e6b81610b63565b9050919050565b60008190508160005260206000209050919050565b600081519050919050565b600081519050919050565b600082825260208201905092915050565b600082825260208201905092915050565b600063ffffffff82169050919050565b6000610eda82610eff565b9050919050565b6000610eec82610eff565b9050919050565b60008115159050919050565b600073ffffffffffffffffffffffffffffffffffffffff82169050919050565b600063ffffffff82169050919050565b6000610f3a82610f41565b9050919050565b6000610f4c82610f53565b9050919050565b6000610f5e82610eff565b9050919050565b60005b83811015610f83578082015181840152602081019050610f68565b83811115610f92576000848401525b50505050565b6000610fab610fa683610fc3565b610ebf565b9050919050565b6000601f19601f8301169050919050565b60008160001c905091905056fea365627a7a72315820c23f3e0cd11ce903a421093e8c0c9cb5de1b68009876dfdcdfd68be56b6ddb0d6c6578706572696d656e74616cf564736f6c63430005100040",
  "source": "pragma solidity 0.5.16;\r\npragma experimental ABIEncoderV2;\r\n\r\ncontract TransferTrade {\r\n\r\n    struct TicketInfo {\r\n        string concertName;\r\n        string day;   // 나중에 타입 다시 생각하기\r\n        string time;  // 나중에 타입 다시 생각하기\r\n        Seat seat;\r\n        uint32 ticketPrice;\r\n        bool isTransferred;\r\n        address payable owner;\r\n    }\r\n\r\n    struct Seat {\r\n        string typeOfSeat;\r\n        uint32 seatNumber;\r\n    }\r\n\r\n    // 디폴트 티켓 생성\r\n    Seat public defaultSeat = Seat(\"VIP\", 30);\r\n    TicketInfo defaultTicket = TicketInfo(\"오마이걸\", \"2021-06-18\", \"18:00\", defaultSeat, 100000, false, 0x1c049AC608CB6B8B748Ed0449B9d592b9CDe2314);\r\n\r\n    // 상수\r\n    uint256 constant internal TICKET_PRICE = 5 * 10 ** 15;\r\n\r\n    // 변수\r\n    address payable public transferee;\r\n\r\n    // 이벤트\r\n    event GetMyTransferringTicket(string concertName, string day, string time, string typeOfSeat, uint32 seatNumber, uint32 ticketPrice);\r\n    event GetMyTicket(string concertName, string day, string time, string typeOfSeat, uint32 seatNumber, uint32 ticketPrice);\r\n    event FinishPay(address transferee);\r\n    event GetDefaultTicket(string concertName, string day, string time, Seat defaultSeat, uint32 ticketPrice, address owner);\r\n\r\n    // 생성자\r\n    constructor() public payable {\r\n        transferee = msg.sender;\r\n    }\r\n\r\n    /**\r\n    * @dev DefaultTicket 가져오기\r\n    */\r\n    function getDefaultTicket() public {\r\n        emit GetDefaultTicket(defaultTicket.concertName, defaultTicket.day, defaultTicket.time, defaultTicket.seat, defaultTicket.ticketPrice, defaultTicket.owner);\r\n    }\r\n\r\n    /**\r\n    * @dev 양도 신청 처리 함수\r\n    */\r\n    function transferApplication() public payable returns (bool){\r\n        // alreadyTransferringTicket을 확인, 임시로 데모를 위해 require만을 사용하여 거래가 진행중인지 확인한다.\r\n        require(defaultTicket.isTransferred == false, \"Already ticket is transferred\");\r\n\r\n        // pay\r\n        pay();\r\n\r\n        // changeTicketInfo\r\n        changeTicketInfo();\r\n\r\n        return true;\r\n    }\r\n\r\n    /**\r\n    * @dev 이미 거래중인 티켓인 경우\r\n    */\r\n    function alreadyTransferringTicket() internal returns (bool result){\r\n        return false;\r\n    }\r\n\r\n    /**\r\n    * @dev 양수인의 계좌에서 티켓 가격을 받아 양도인에게 송금한다.\r\n    */\r\n    function pay() public payable {\r\n        // 현재 가나슈를 실행중이 아니라서 ticket info의 owner 정보가 없어서 주석처리함\r\n        require(msg.value == TICKET_PRICE, \"Not enough ETH\");\r\n\r\n        defaultTicket.isTransferred = true; // 지불을 진행할 수 있는 상태이기 때문에, 양도거래 진행 중임을 표시한다.\r\n        defaultTicket.owner.transfer(TICKET_PRICE);\r\n        emit FinishPay(transferee);\r\n    }\r\n\r\n    /**\r\n    * @dev 양도거래가 끝난 티켓의 정보를 수정한다.\r\n    */\r\n    function changeTicketInfo() public returns (address) {\r\n        // owner change\r\n        // 현재 가나슈를 실행중이 아니라서 ticket info의 owner 정보가 없어서 주석처리함\r\n        defaultTicket.owner = transferee;\r\n        return defaultTicket.owner;\r\n    }\r\n\r\n    /**\r\n    * @dev 마이페이지에서 진행중인 양도거래 티켓을 보여준다.\r\n    *      (지불이 끝나야 거래 성사가 되는 것이기 때문에, 이는 양도인에게만 보여주면 된다.)\r\n    * @return 콘서트 이름을 반환한다. (이는 테스트를 위한 용도이다.)\r\n    */\r\n    function getMyTransferringTicket() public returns (string memory){\r\n        require(defaultTicket.isTransferred == false, \"Ticket trade is completed.\");\r\n        emit GetMyTransferringTicket(defaultTicket.concertName, defaultTicket.day, defaultTicket.time, defaultTicket.seat.typeOfSeat, defaultTicket.seat.seatNumber, defaultTicket.ticketPrice);\r\n        string memory name = defaultTicket.concertName;\r\n        return name;\r\n    }\r\n\r\n    /**\r\n    * @dev 마이페이지에서 소유하고 있는 티켓을 보여준다.\r\n    * @return 콘서트 이름과 현재 티켓 소유주를 반환한다. (이는 테스트를 위한 용도이다.)\r\n    * \r\n    */\r\n    function getMyTicket() public returns (string memory, address){\r\n        require(msg.sender == defaultTicket.owner, \"You aren't owner.. So it's impossible confirm.\");\r\n        emit GetMyTicket(defaultTicket.concertName, defaultTicket.day, defaultTicket.time, defaultTicket.seat.typeOfSeat, defaultTicket.seat.seatNumber, defaultTicket.ticketPrice);\r\n        string memory name = defaultTicket.concertName;\r\n        address ownerAddress = defaultTicket.owner;\r\n        return (name, ownerAddress);\r\n    }\r\n}",
  "sourcePath": "C:/Users/seung/Desktop/학교생활/2021_1/종합설계1/myproject/K-ticket/contracts/TransferTrade.sol",
  "compiler": {
    "name": "solc",
    "version": "0.5.16+commit.9c3226ce.Emscripten.clang"
  },
  "schemaVersion": "3.3.3",
  "updatedAt": "2021-06-10T14:57:20.371Z",
  "networkType": "ethereum",
  "devdoc": {
    "methods": {
      "changeTicketInfo()": {
        "details": "양도거래가 끝난 티켓의 정보를 수정한다."
      },
      "getDefaultTicket()": {
        "details": "DefaultTicket 가져오기"
      },
      "getMyTicket()": {
        "details": "마이페이지에서 소유하고 있는 티켓을 보여준다.",
        "return": "콘서트 이름과 현재 티켓 소유주를 반환한다. (이는 테스트를 위한 용도이다.) \r"
      },
      "getMyTransferringTicket()": {
        "details": "마이페이지에서 진행중인 양도거래 티켓을 보여준다.     (지불이 끝나야 거래 성사가 되는 것이기 때문에, 이는 양도인에게만 보여주면 된다.)",
        "return": "콘서트 이름을 반환한다. (이는 테스트를 위한 용도이다.)"
      },
      "pay()": {
        "details": "양수인의 계좌에서 티켓 가격을 받아 양도인에게 송금한다."
      },
      "transferApplication()": {
        "details": "양도 신청 처리 함수"
      }
    }
  },
  "userdoc": {
    "methods": {}
  }
}