{
  "contractName": "TransferTrade",
  "abi": [
    {
      "inputs": [],
      "payable": false,
      "stateMutability": "nonpayable",
      "type": "constructor"
    },
    {
      "anonymous": false,
      "inputs": [
        {
          "indexed": false,
          "internalType": "string",
          "name": "concertName",
          "type": "string"
        },
        {
          "indexed": false,
          "internalType": "string",
          "name": "day",
          "type": "string"
        },
        {
          "indexed": false,
          "internalType": "string",
          "name": "time",
          "type": "string"
        },
        {
          "indexed": false,
          "internalType": "string",
          "name": "typeOfSeat",
          "type": "string"
        },
        {
          "indexed": false,
          "internalType": "uint32",
          "name": "seatNumber",
          "type": "uint32"
        },
        {
          "indexed": false,
          "internalType": "uint32",
          "name": "ticketPrice",
          "type": "uint32"
        }
      ],
      "name": "GetMyTicket",
      "type": "event"
    },
    {
      "anonymous": false,
      "inputs": [
        {
          "indexed": false,
          "internalType": "string",
          "name": "concertName",
          "type": "string"
        },
        {
          "indexed": false,
          "internalType": "string",
          "name": "day",
          "type": "string"
        },
        {
          "indexed": false,
          "internalType": "string",
          "name": "time",
          "type": "string"
        },
        {
          "indexed": false,
          "internalType": "string",
          "name": "typeOfSeat",
          "type": "string"
        },
        {
          "indexed": false,
          "internalType": "uint32",
          "name": "seatNumber",
          "type": "uint32"
        },
        {
          "indexed": false,
          "internalType": "uint32",
          "name": "ticketPrice",
          "type": "uint32"
        }
      ],
      "name": "GetMyTransferringTicket",
      "type": "event"
    },
    {
      "constant": true,
      "inputs": [],
      "name": "defaultSeat",
      "outputs": [
        {
          "internalType": "string",
          "name": "typeOfSeat",
          "type": "string"
        },
        {
          "internalType": "uint32",
          "name": "seatNumber",
          "type": "uint32"
        }
      ],
      "payable": false,
      "stateMutability": "view",
      "type": "function"
    },
    {
      "constant": true,
      "inputs": [],
      "name": "transferee",
      "outputs": [
        {
          "internalType": "address payable",
          "name": "",
          "type": "address"
        }
      ],
      "payable": false,
      "stateMutability": "view",
      "type": "function"
    },
    {
      "constant": true,
      "inputs": [],
      "name": "transferApplication",
      "outputs": [],
      "payable": false,
      "stateMutability": "view",
      "type": "function"
    }
  ],
  "bytecode": "0x608060405260405180604001604052806040518060400160405280600381526020017f56495000000000000000000000000000000000000000000000000000000000008152508152602001601e63ffffffff1681525060008082015181600001908051906020019061007292919061038c565b5060208201518160010160006101000a81548163ffffffff021916908363ffffffff16021790555050506040518060c001604052806040518060400160405280600381526020017f45584f000000000000000000000000000000000000000000000000000000000081525081526020016040518060400160405280600a81526020017f323032312d30362d31380000000000000000000000000000000000000000000081525081526020016040518060400160405280600581526020017f31383a303000000000000000000000000000000000000000000000000000000081525081526020016000604051806040016040529081600082018054600181600116156101000203166002900480601f0160208091040260200160405190810160405280929190818152602001828054600181600116156101000203166002900480156101fe5780601f106101d3576101008083540402835291602001916101fe565b820191906000526020600020905b8154815290600101906020018083116101e157829003601f168201915b505050505081526020016001820160009054906101000a900463ffffffff1663ffffffff1663ffffffff16815250508152602001620186a063ffffffff168152602001600015158152506002600082015181600001908051906020019061026692919061038c565b50602082015181600101908051906020019061028392919061038c565b5060408201518160020190805190602001906102a092919061038c565b5060608201518160030160008201518160000190805190602001906102c692919061038c565b5060208201518160010160006101000a81548163ffffffff021916908363ffffffff160217905550505060808201518160050160006101000a81548163ffffffff021916908363ffffffff16021790555060a08201518160050160046101000a81548160ff021916908315150217905550505034801561034557600080fd5b5033600860006101000a81548173ffffffffffffffffffffffffffffffffffffffff021916908373ffffffffffffffffffffffffffffffffffffffff160217905550610431565b828054600181600116156101000203166002900490600052602060002090601f016020900481019282601f106103cd57805160ff19168380011785556103fb565b828001600101855582156103fb579182015b828111156103fa5782518255916020019190600101906103df565b5b509050610408919061040c565b5090565b61042e91905b8082111561042a576000816000905550600101610412565b5090565b90565b6102e7806104406000396000f3fe608060405234801561001057600080fd5b50600436106100415760003560e01c8063330854fc146100465780638cabe7d01461005057806391ad15ca1461009a575b600080fd5b61004e610130565b005b6100586101ce565b604051808273ffffffffffffffffffffffffffffffffffffffff1673ffffffffffffffffffffffffffffffffffffffff16815260200191505060405180910390f35b6100a26101f4565b60405180806020018363ffffffff1663ffffffff168152602001828103825284818151815260200191508051906020019080838360005b838110156100f45780820151818401526020810190506100d9565b50505050905090810190601f1680156101215780820380516001836020036101000a031916815260200191505b50935050505060405180910390f35b60001515600260050160049054906101000a900460ff161515146101bc576040517f08c379a000000000000000000000000000000000000000000000000000000000815260040180806020018281038252601d8152602001807f416c7265616479207469636b6574206973207472616e7366657272656400000081525060200191505060405180910390fd5b6101c46102ae565b6101cc6102b0565b565b600860009054906101000a900473ffffffffffffffffffffffffffffffffffffffff1681565b6000806000018054600181600116156101000203166002900480601f01602080910402602001604051908101604052809291908181526020018280546001816001161561010002031660029004801561028e5780601f106102635761010080835404028352916020019161028e565b820191906000526020600020905b81548152906001019060200180831161027157829003601f168201915b5050505050908060010160009054906101000a900463ffffffff16905082565b565b56fea265627a7a72315820abe9e98673f339f73d9f21a9cc899f05ee60ffd659bb37c309139fe5745046cf64736f6c63430005100032",
  "source": "pragma solidity >=0.4.21 <0.7.0;\r\n\r\ncontract TransferTrade {\r\n\r\n    struct TicketInfo {\r\n        string concertName;\r\n        string day;   // 나중에 타입 다시 생각하기\r\n        string time;  // 나중에 타입 다시 생각하기\r\n        Seat seat;\r\n        uint32 ticketPrice;\r\n        bool isTransferred;\r\n        // address payable owner;\r\n    }\r\n\r\n    struct Seat {\r\n        string typeOfSeat;\r\n        uint32 seatNumber;\r\n    }\r\n\r\n    // 디폴트 티켓 생성\r\n    Seat public defaultSeat = Seat(\"VIP\", 30);\r\n    TicketInfo defaultTicket = TicketInfo(\"EXO\", \"2021-06-18\", \"18:00\", defaultSeat, 100000, false);\r\n\r\n    // 상수\r\n    uint256 constant internal TICKET_PRICE = 5 * 10 ** 15;\r\n\r\n    // 변수\r\n    address payable public transferee;\r\n\r\n    // 이벤트\r\n    event GetMyTransferringTicket(string concertName, string day, string time, string typeOfSeat, uint32 seatNumber, uint32 ticketPrice);\r\n    event GetMyTicket(string concertName, string day, string time, string typeOfSeat, uint32 seatNumber, uint32 ticketPrice);\r\n\r\n\r\n    // 생성자\r\n    constructor() public {\r\n        transferee = msg.sender;\r\n    }\r\n\r\n    /**\r\n    * @dev 양도 신청 처리 함수\r\n    */\r\n    function transferApplication() public view {\r\n        // alreadyTransferringTicket을 확인, 임시로 데모를 위해 require만을 사용하여 거래가 진행중인지 확인한다.\r\n        require(defaultTicket.isTransferred == false, \"Already ticket is transferred\");\r\n\r\n        // pay\r\n        pay();\r\n\r\n        // changeTicketInfo\r\n        changeTicketInfo();\r\n    }\r\n\r\n    /**\r\n    * @dev 이미 거래중인 티켓인 경우\r\n    */\r\n//    function alreadyTransferringTicket() internal returns (bool result){\r\n//        return false;\r\n//    }\r\n\r\n    /**\r\n    * @dev 양수인의 계좌에서 티켓 가격을 받아 양도인에게 송금한다.\r\n    */\r\n    function pay() internal view {\r\n        // 현재 가나슈를 실행중이 아니라서 ticket info의 owner 정보가 없어서 주석처리함\r\n        // owner.transfer(TICKET_PRICE);\r\n    }\r\n\r\n    /**\r\n    * @dev 양도거래가 끝난 티켓의 정보를 수정한다.\r\n    */\r\n    function changeTicketInfo() internal view {\r\n        // owner change\r\n        // 현재 가나슈를 실행중이 아니라서 ticket info의 owner 정보가 없어서 주석처리함\r\n        // defaultTicket.owner = transferee;\r\n    }\r\n\r\n//    /**\r\n//    * @dev 마이페이지에서 진행중인 양도거래 티켓을 보여준다.\r\n//    */\r\n//    function getMyTransferringTicket() public {\r\n//\r\n//    }\r\n//\r\n//    /**\r\n//    * @dev 마이페이지에서 소유하고 있는 티켓을 보여준다.\r\n//    */\r\n//    function getMyTicket() public {\r\n//\r\n//    }\r\n}",
  "sourcePath": "C:/Users/seung/Desktop/학교생활/2021_1/종합설계1/myproject/K-ticket/contracts/TransferTrade.sol",
  "compiler": {
    "name": "solc",
    "version": "0.5.16+commit.9c3226ce.Emscripten.clang"
  },
  "schemaVersion": "3.3.3",
  "updatedAt": "2021-05-24T11:55:52.161Z",
  "devdoc": {
    "methods": {
      "transferApplication()": {
        "details": "양도 신청 처리 함수"
      }
    }
  },
  "userdoc": {
    "methods": {}
  }
}